:030000000208FCF7
:0C08FC00787FE4F6D8FD75810C0208003E
:0A0908004C59434F20534F46540052
:06084200D2937F057E0049
:10084800E4FDFCC3ED9FEE6480F8EC6480985015DD
:10085800E4FBFA0BBB00010AEB64734A70F50DBDAB
:0508680000010C80DE20
:01086D002268
:10089300A907E954F0F590C292120842C293E9C441
:0E08A30054F0F590C292D293120848C29322EC
:1008B100A907E954F0F590D292120842C293E9C413
:0E08C10054F0F590D292D293120848C29322BE
:10086E008B088A09890AAB08AA09A90A1208CF605F
:10087E0013050AE50A7002050914F91208CFFF12D2
:05088E0008B180E22228
:1008E8007F021208937F281208937F061208937FCD
:0408F8000C02089353
:10080000E4F5901208E87F801208937BFF7A09795B
:100810000812086E7FC0120893E50C2430FF1208FE
:10082000B17FF47E01120848050CE50C7002050B3F
:10083000D39409E50B6480948040CBE4F50BF50C70
:0208400080C472
:1008CF00BB010689828A83E0225002E722BBFE0227
:0908DF00E32289828A83E493225A
:00000001FF
